:100000000C942A000C9447000C9447000C947D013A
:100010000C9447000C9447000C9447000C94470044
:100020000C9447000C9447000C9447000C94470034
:100030000C9447000C9447000C9447000C94470024
:100040000C9447000C9447000C9447000C94470014
:100050000C94470011241FBECFE5D8E0DEBFCDBF12
:1000600010E0A0E6B0E0EAE8F9E002C005900D92E9
:10007000A437B107D9F720E0A4E7B0E001C01D9292
:10008000AA37B207E1F70E94C9010C94C3040C948B
:1000900000000E945A040E942B036EE181E00E943E
:1000A000330380E00895CF93DF9300D0CDB7DEB760
:1000B0000E946104CE0101960E94730489819A8195
:1000C0008E32910558F06EE181E00E94330366E9BB
:1000D00070E080E090E00E94150317C04F9758F041
:1000E0006EE183E00E94330368EC70E080E090E012
:1000F0000E9415030AC06EE182E00E94330366E9A4
:1001000070E080E090E00E94150380E00F900F9077
:10011000DF91CF910895FC01892B09F455C08081AE
:100120008130C9F028F0823049F18330D1F14EC0DE
:100130008281882319F08F3F41F04AC09AB38181B0
:10014000809589238ABB80E008959AB38181892BA9
:100150008ABB80E008958281882319F08F3F41F0A7
:1001600039C097B381818095892387BB80E008954A
:1001700097B38181892B87BB80E008958281882392
:1001800019F08F3F41F028C094B381818095892375
:1001900084BB80E0089594B38181892B84BB80E087
:1001A00008958281882319F08F3F41F017C091B3E1
:1001B00081818095892381BB80E0089591B38181FD
:1001C000892B81BB80E0089581E0089581E0089546
:1001D00080E0089580E0089580E0089580E008952B
:1001E0008130A9F028F0823009F1833071F13CC0F0
:1001F000442339F04F3FD1F58BB3682B6BBB80E0C4
:1002000008958BB3609568236BBB80E00895442309
:1002100039F04F3F69F588B3682B68BB80E00895DB
:1002200088B36095682368BB80E00895442339F063
:100230004F3F01F585B3682B65BB80E0089585B31A
:100240006095682365BB80E00895442339F04F3FF3
:1002500099F482B3682B62BB80E0089582B3609505
:10026000682362BB80E0089581E0089580E00895EE
:1002700080E0089580E0089580E00895CF93DF93B3
:10028000009711F1EC018881823069F484E690E0F6
:100290000E948B0084B7806484BF8AB780628ABF63
:1002A0008BB780628BBF8981811109C080E690E0A5
:1002B0000E94960382E08093740080E001C081E098
:1002C0009FB790689FBF01C081E0DF91CF910895F3
:1002D0004115510581F0823071F4613061F48091F3
:1002E00067008330E1F7BA01809174000E943804FE
:1002F00081E08093670081E008951F920F920FB60E
:100300000F9211242F933F934F935F936F937F939B
:100310008F939F93AF93BF93EF93FF938091670069
:10032000813019F08230A1F023C06FEF70E080912E
:1003300074000E94E8038BB78F7D8BBF84B78F7BDF
:1003400084BF8BB780628BBF82E08093670010C050
:10035000809174000E9421048BB78F7D8BBF84B77E
:10036000806484BF8BB780628BBF83E0809367001B
:10037000FF91EF91BF91AF919F918F917F916F917D
:100380005F914F913F912F910F900FBE0F901F9053
:1003900018950E9449000E945300FDCF813019F04A
:1003A000823051F012C08FE690E00E948B0081E015
:1003B0008093760080E008958CE690E00E948B00A8
:1003C00081E08093750080E0089581E00895813098
:1003D00019F0823059F154C0613081F018F0623068
:1003E000C9F050C040E064E083E00E94F00040E0CB
:1003F00068E083E00E94F00080E008954FEF64E041
:1004000083E00E94F00040E068E083E00E94F0009A
:1004100080E0089540E064E083E00E94F0004FEF48
:1004200068E083E00E94F00080E00895613081F090
:1004300018F06230C9F028C040E060E483E00E9418
:10044000F00040E060E883E00E94F00080E0089562
:100450004FEF60E483E00E94F00040E060E883E05A
:100460000E94F00080E0089540E060E483E00E9494
:10047000F0004FEF60E883E00E94F00080E0089514
:1004800081E0089581E0089581E00895CF93C62F1B
:10049000813019F0823079F01CC08AE690E00E9429
:1004A0008B0224E630E040E050E06C2F82E00E94B6
:1004B000CE0280E00FC088E690E00E948B0224E626
:1004C00030E040E050E06C2F81E00E94CE0280E0FE
:1004D00001C081E0CF910895813019F0823069F038
:1004E00018C040E064E083E00E94F00040E068E073
:1004F00083E00E94F00080E0089540E060E483E043
:100500000E94F00040E060E883E00E94F00080E09C
:10051000089581E008950097C9F1FC012081213000
:1005200019F02230B1F034C08D9A2FB522682FBD5A
:100530002EB520612EBDFC018181833039F018F485
:10054000823020F027C08550823020F58D9A80E0DF
:1005500008951DBC1CBC17BC16BC19BC18BC8C9AD9
:100560002FB5237F2FBD2FB522622FBD2EB5206161
:100570002EBDFC018181833039F018F4823020F0E7
:100580000BC08550823040F480E0089581E00895EA
:1005900081E0089581E0089581E00895813019F0A7
:1005A0008230F9F03CC02436310541055105C9F5CA
:1005B0008EE490E097BD86BD262F30E0AEE4B0E03B
:1005C0000E94B40424E630E040E050E00E9492042F
:1005D0003BBD2ABD8EB59FB585609FBD8EBD80E0B9
:1005E00008952436310541055105E9F48EE490E083
:1005F00097BD86BD262F30E0AEE4B0E00E94B40483
:1006000024E630E040E050E00E94920439BD28BD6D
:100610008EB59FB585609FBD8EBD80E0089581E059
:10062000089581E0089581E00895AB01BC01411572
:1006300051056105710559F4089501968D3E28E034
:100640009207D9F7415051096109710919F080E009
:1006500090E0F3CF089581E00E94CE0182E00E94F5
:10066000CE0180E00895CF93C62F823031F128F477
:10067000882349F0813079F056C0833081F184308D
:1006800009F43FC050C081E00E946C0282E00E94E9
:100690006C0280E049C061E081E00E94E70161E016
:1006A00082E00E94E7016C2F81E00E9446026C2FDD
:1006B00082E00E94460280E037C062E081E00E9452
:1006C000E70162E082E00E94E7016C2F81E00E9476
:1006D00046026C2F82E00E94460280E025C061E065
:1006E00081E00E94E70162E082E00E94E7016C2F56
:1006F00081E00E9446026C2F82E00E94460280E068
:1007000013C062E081E00E94E70161E082E00E94A4
:10071000E7016C2F81E00E9446026C2F82E00E946C
:10072000460280E001C081E0CF910895FC01892B51
:1007300009F44AC080818130C1F018F0823071F133
:1007400045C013BE12BE98B7916098BF93B793BFD0
:100750009381911106C099B7916099BF9FB7906836
:100760009FBF92819093790008951FBC1EBC1DBC51
:100770001CBC88B7846088BF8EB59FB59FBD8EBDF9
:100780008381811106C089B7846089BF8FB7806873
:100790008FBF82818093780080E0089515BC14BCDF
:1007A00012BC88B7806488BF85B585BD83818111FF
:1007B00006C089B7806489BF8FB780688FBF828188
:1007C0008093770080E0089581E0089581E00895A6
:1007D000813089F018F0823009F12DC06F3F71052A
:1007E00009F058F5609562BF93B780917900892B25
:1007F00083BF80E0089599B789B7837C89BF7195DD
:10080000619571097DBD6CBD99BF8EB59FB5209175
:100810007800822B9FBD8EBD80E008956F3F7105EB
:1008200009F068F4609564BD95B580917700892BD7
:1008300085BD80E0089581E0089581E0089581E01C
:100840000895813049F018F0823059F00FC083B715
:10085000887F83BF80E008958EB5887F8EBD80E05D
:10086000089585B5887F85BD80E0089581E008956D
:10087000813059F018F08230A1F01AC082B790E0B0
:10088000FB019183808380E0089599B789B7837CC9
:1008900089BF2CB53DB5FB013183208399BF80E032
:1008A000089584B590E0FB019183808380E00895F2
:1008B00081E00895B89A82E790E00E943E0180E0CE
:1008C00008954FEF61E081E00E94F0006FE070E07A
:1008D00080E090E00E94150340E061E081E00E942A
:1008E000F00080E008950F931F93CF93DF9300D023
:1008F00000D0CDB7DEB78C01AE014F5F5F4F61E036
:1009000082E00E94680189819A81F8019183808345
:1009100080E00F900F900F900F90DF91CF911F917B
:100920000F910895A1E21A2EAA1BBB1BFD010DC059
:10093000AA1FBB1FEE1FFF1FA217B307E407F5078F
:1009400020F0A21BB30BE40BF50B661F771F881F6B
:10095000991F1A9469F760957095809590959B0101
:10096000AC01BD01CF010895A29FB001B39FC001AA
:10097000A39F700D811D1124911DB29F700D811DCB
:0A0980001124911D0895F894FFCF93
:10098A0002000701010400010106020603E0FF0359
:04099A001CFF02003C
:00000001FF
